:10080000C2A0D2A3D2B3D2B0C2A1C2A4C2B4C2B158
:10081000D2A2C2A5C2B5C2B212086FC2A3D2A47F2F
:10082000057E00120873C2A4C2A2D2A0D2A51208EB
:100830006FC2B3D2B47F057E00120873C2B4C2A5E2
:10084000D2A3D2B512086FC2B0D2B17F057E00121A
:100850000873C2B1C2B5D2B3D2B212086FC2A0C27D
:0F086000B0D2A17F057E00120873C2A1D2B222CE
:04086F007F2D7E005B
:040873008E088F0953
:10087700E4FFFEE4FDFC0DBD00010CBC01F8BDF476
:0C088700F50FBF00010EBE01EABFF4E750
:010893002242
:030000000208945F
:0C089400787FE4F6D8FD758109020800A9
:00000001FF
